{
  "contractName": "cTornado",
  "abi": [
    {
      "inputs": [
        {
          "internalType": "contract IERC20",
          "name": "_comp",
          "type": "address"
        },
        {
          "internalType": "contract IVerifier",
          "name": "_verifier",
          "type": "address"
        },
        {
          "internalType": "contract IHasher",
          "name": "_hasher",
          "type": "address"
        },
        {
          "internalType": "uint256",
          "name": "_denomination",
          "type": "uint256"
        },
        {
          "internalType": "uint32",
          "name": "_merkleTreeHeight",
          "type": "uint32"
        },
        {
          "internalType": "contract IERC20",
          "name": "_token",
          "type": "address"
        }
      ],
      "stateMutability": "nonpayable",
      "type": "constructor"
    },
    {
      "anonymous": false,
      "inputs": [
        {
          "indexed": true,
          "internalType": "bytes32",
          "name": "commitment",
          "type": "bytes32"
        },
        {
          "indexed": false,
          "internalType": "uint32",
          "name": "leafIndex",
          "type": "uint32"
        },
        {
          "indexed": false,
          "internalType": "uint256",
          "name": "timestamp",
          "type": "uint256"
        }
      ],
      "name": "Deposit",
      "type": "event"
    },
    {
      "anonymous": false,
      "inputs": [
        {
          "indexed": false,
          "internalType": "address",
          "name": "to",
          "type": "address"
        },
        {
          "indexed": false,
          "internalType": "bytes32",
          "name": "nullifierHash",
          "type": "bytes32"
        },
        {
          "indexed": true,
          "internalType": "address",
          "name": "relayer",
          "type": "address"
        },
        {
          "indexed": false,
          "internalType": "uint256",
          "name": "fee",
          "type": "uint256"
        }
      ],
      "name": "Withdrawal",
      "type": "event"
    },
    {
      "inputs": [],
      "name": "FIELD_SIZE",
      "outputs": [
        {
          "internalType": "uint256",
          "name": "",
          "type": "uint256"
        }
      ],
      "stateMutability": "view",
      "type": "function"
    },
    {
      "inputs": [],
      "name": "ROOT_HISTORY_SIZE",
      "outputs": [
        {
          "internalType": "uint32",
          "name": "",
          "type": "uint32"
        }
      ],
      "stateMutability": "view",
      "type": "function"
    },
    {
      "inputs": [],
      "name": "ZERO_VALUE",
      "outputs": [
        {
          "internalType": "uint256",
          "name": "",
          "type": "uint256"
        }
      ],
      "stateMutability": "view",
      "type": "function"
    },
    {
      "inputs": [
        {
          "internalType": "bytes32",
          "name": "",
          "type": "bytes32"
        }
      ],
      "name": "commitments",
      "outputs": [
        {
          "internalType": "bool",
          "name": "",
          "type": "bool"
        }
      ],
      "stateMutability": "view",
      "type": "function"
    },
    {
      "inputs": [],
      "name": "comp",
      "outputs": [
        {
          "internalType": "contract IERC20",
          "name": "",
          "type": "address"
        }
      ],
      "stateMutability": "view",
      "type": "function"
    },
    {
      "inputs": [],
      "name": "currentRootIndex",
      "outputs": [
        {
          "internalType": "uint32",
          "name": "",
          "type": "uint32"
        }
      ],
      "stateMutability": "view",
      "type": "function"
    },
    {
      "inputs": [],
      "name": "denomination",
      "outputs": [
        {
          "internalType": "uint256",
          "name": "",
          "type": "uint256"
        }
      ],
      "stateMutability": "view",
      "type": "function"
    },
    {
      "inputs": [
        {
          "internalType": "bytes32",
          "name": "_commitment",
          "type": "bytes32"
        }
      ],
      "name": "deposit",
      "outputs": [],
      "stateMutability": "payable",
      "type": "function"
    },
    {
      "inputs": [
        {
          "internalType": "uint256",
          "name": "",
          "type": "uint256"
        }
      ],
      "name": "filledSubtrees",
      "outputs": [
        {
          "internalType": "bytes32",
          "name": "",
          "type": "bytes32"
        }
      ],
      "stateMutability": "view",
      "type": "function"
    },
    {
      "inputs": [],
      "name": "getLastRoot",
      "outputs": [
        {
          "internalType": "bytes32",
          "name": "",
          "type": "bytes32"
        }
      ],
      "stateMutability": "view",
      "type": "function"
    },
    {
      "inputs": [],
      "name": "governance",
      "outputs": [
        {
          "internalType": "address",
          "name": "",
          "type": "address"
        }
      ],
      "stateMutability": "view",
      "type": "function"
    },
    {
      "inputs": [
        {
          "internalType": "contract IHasher",
          "name": "_hasher",
          "type": "address"
        },
        {
          "internalType": "bytes32",
          "name": "_left",
          "type": "bytes32"
        },
        {
          "internalType": "bytes32",
          "name": "_right",
          "type": "bytes32"
        }
      ],
      "name": "hashLeftRight",
      "outputs": [
        {
          "internalType": "bytes32",
          "name": "",
          "type": "bytes32"
        }
      ],
      "stateMutability": "pure",
      "type": "function"
    },
    {
      "inputs": [],
      "name": "hasher",
      "outputs": [
        {
          "internalType": "contract IHasher",
          "name": "",
          "type": "address"
        }
      ],
      "stateMutability": "view",
      "type": "function"
    },
    {
      "inputs": [
        {
          "internalType": "bytes32",
          "name": "_root",
          "type": "bytes32"
        }
      ],
      "name": "isKnownRoot",
      "outputs": [
        {
          "internalType": "bool",
          "name": "",
          "type": "bool"
        }
      ],
      "stateMutability": "view",
      "type": "function"
    },
    {
      "inputs": [
        {
          "internalType": "bytes32",
          "name": "_nullifierHash",
          "type": "bytes32"
        }
      ],
      "name": "isSpent",
      "outputs": [
        {
          "internalType": "bool",
          "name": "",
          "type": "bool"
        }
      ],
      "stateMutability": "view",
      "type": "function"
    },
    {
      "inputs": [
        {
          "internalType": "bytes32[]",
          "name": "_nullifierHashes",
          "type": "bytes32[]"
        }
      ],
      "name": "isSpentArray",
      "outputs": [
        {
          "internalType": "bool[]",
          "name": "spent",
          "type": "bool[]"
        }
      ],
      "stateMutability": "view",
      "type": "function"
    },
    {
      "inputs": [],
      "name": "levels",
      "outputs": [
        {
          "internalType": "uint32",
          "name": "",
          "type": "uint32"
        }
      ],
      "stateMutability": "view",
      "type": "function"
    },
    {
      "inputs": [],
      "name": "nextIndex",
      "outputs": [
        {
          "internalType": "uint32",
          "name": "",
          "type": "uint32"
        }
      ],
      "stateMutability": "view",
      "type": "function"
    },
    {
      "inputs": [
        {
          "internalType": "bytes32",
          "name": "",
          "type": "bytes32"
        }
      ],
      "name": "nullifierHashes",
      "outputs": [
        {
          "internalType": "bool",
          "name": "",
          "type": "bool"
        }
      ],
      "stateMutability": "view",
      "type": "function"
    },
    {
      "inputs": [
        {
          "internalType": "uint256",
          "name": "",
          "type": "uint256"
        }
      ],
      "name": "roots",
      "outputs": [
        {
          "internalType": "bytes32",
          "name": "",
          "type": "bytes32"
        }
      ],
      "stateMutability": "view",
      "type": "function"
    },
    {
      "inputs": [],
      "name": "token",
      "outputs": [
        {
          "internalType": "contract IERC20",
          "name": "",
          "type": "address"
        }
      ],
      "stateMutability": "view",
      "type": "function"
    },
    {
      "inputs": [],
      "name": "verifier",
      "outputs": [
        {
          "internalType": "contract IVerifier",
          "name": "",
          "type": "address"
        }
      ],
      "stateMutability": "view",
      "type": "function"
    },
    {
      "inputs": [
        {
          "internalType": "bytes",
          "name": "_proof",
          "type": "bytes"
        },
        {
          "internalType": "bytes32",
          "name": "_root",
          "type": "bytes32"
        },
        {
          "internalType": "bytes32",
          "name": "_nullifierHash",
          "type": "bytes32"
        },
        {
          "internalType": "address payable",
          "name": "_recipient",
          "type": "address"
        },
        {
          "internalType": "address payable",
          "name": "_relayer",
          "type": "address"
        },
        {
          "internalType": "uint256",
          "name": "_fee",
          "type": "uint256"
        },
        {
          "internalType": "uint256",
          "name": "_refund",
          "type": "uint256"
        }
      ],
      "name": "withdraw",
      "outputs": [],
      "stateMutability": "payable",
      "type": "function"
    },
    {
      "inputs": [
        {
          "internalType": "uint256",
          "name": "i",
          "type": "uint256"
        }
      ],
      "name": "zeros",
      "outputs": [
        {
          "internalType": "bytes32",
          "name": "",
          "type": "bytes32"
        }
      ],
      "stateMutability": "pure",
      "type": "function"
    },
    {
      "inputs": [],
      "name": "claimComp",
      "outputs": [],
      "stateMutability": "nonpayable",
      "type": "function"
    }
  ],
  "bytecode": "0x610160604052600280546001600160401b03191690557f5efda50f22d34f262c29268506c5fa42cb56a1ce000000000000000000000000610120523480156200004757600080fd5b50604051620029d0380380620029d0833981810160405260c08110156200006d57600080fd5b508051602082015160408301516060840151608085015160a0909501519394929391929091848484848484848484808363ffffffff8216620000e15760405162461bcd60e51b8152600401808060200182810382526023815260200180620029ad6023913960400191505060405180910390fd5b60208263ffffffff16106200013d576040805162461bcd60e51b815260206004820152601e60248201527f5f6c6576656c732073686f756c64206265206c657373207468616e2033320000604482015290519081900360640190fd5b6001600160e01b031960e083901b1660a0526001600160601b0319606082901b1660805260005b8263ffffffff168163ffffffff161015620001a9576200018a63ffffffff8216620002d4565b63ffffffff821660009081526020819052604090205560010162000164565b50620001bf63ffffffff600019840116620002d4565b60008052600160208190527fa6eef7e35abe7026729641147f7915573c7e97b47efa546f5f6e3230263bcb4991909155600355505081620002325760405162461bcd60e51b8152600401808060200182810382526025815260200180620029886025913960400191505060405180910390fd5b506001600160601b0319606093841b811660c05260e0919091529290911b9091166101005250505050506001600160a01b038616620002b8576040805162461bcd60e51b815260206004820152601a60248201527f496e76616c696420434f4d5020746f6b656e2061646472657373000000000000604482015290519081900360640190fd5b505050505060601b6001600160601b0319166101405262000962565b6000816200030457507f2fe54c60d3acabf3343a35b6eba15db4821b340f76e741e2249685ed4899af6c6200095d565b81600114156200033657507f256a6135777eee2fd26f54b8b7037a25439d5235caee224154186d2b8a52e31d6200095d565b81600214156200036857507f1151949895e82ab19924de92c40a3d6f7bcb60d92b00504b8199613683f0c2006200095d565b81600314156200039a57507f20121ee811489ff8d61f09fb89e313f14959a0f28bb428a20dba6b0b068b3bdb6200095d565b8160041415620003cc57507f0a89ca6ffa14cc462cfedb842c30ed221a50a3d6bf022a6a57dc82ab24c157c96200095d565b8160051415620003fe57507f24ca05c2b5cd42e890d6be94c68d0689f4f21c9cec9c0f13fe41d566dfb549596200095d565b81600614156200043057507f1ccb97c932565a92c60156bdba2d08f3bf1377464e025cee765679e604a7315c6200095d565b81600714156200046257507f19156fbd7d1a8bf5cba8909367de1b624534ebab4f0f79e003bccdd1b182bdb46200095d565b81600814156200049457507f261af8c1f0912e465744641409f622d466c3920ac6e5ff37e36604cb11dfff806200095d565b8160091415620004c557507e58459724ff6ca5a1652fcbc3e82b93895cf08e975b19beab3f54c217d1c0076200095d565b81600a1415620004f757507f1f04ef20dee48d39984d8eabe768a70eafa6310ad20849d4573c3c40c2ad1e306200095d565b81600b14156200052957507f1bea3dec5dab51567ce7e200a30f7ba6d4276aeaa53e2686f962a46c66d511e56200095d565b81600c14156200055b57507f0ee0f941e2da4b9e31c3ca97a40d8fa9ce68d97c084177071b3cb46cd3372f0f6200095d565b81600d14156200058d57507f1ca9503e8935884501bbaf20be14eb4c46b89772c97b96e3b2ebf3a36a948bbd6200095d565b81600e1415620005bf57507f133a80e30697cd55d8f7d4b0965b7be24057ba5dc3da898ee2187232446cb1086200095d565b81600f1415620005f157507f13e6d8fc88839ed76e182c2a779af5b2c0da9dd18c90427a644f7e148a6253b66200095d565b81601014156200062357507f1eb16b057a477f4bc8f572ea6bee39561098f78f15bfb3699dcbb7bd8db618546200095d565b81601114156200065557507f0da2cb16a1ceaabf1c16b838f7a9e3f2a3a3088d9e0a6debaa748114620696ea6200095d565b81601214156200068757507f24a3b3d822420b14b5d8cb6c28a574f01e98ea9e940551d2ebd75cee12649f9d6200095d565b8160131415620006b957507f198622acbd783d1b0d9064105b1fc8e4d8889de95c4c519b3f635809fe6afc056200095d565b8160141415620006eb57507f29d7ed391256ccc3ea596c86e933b89ff339d25ea8ddced975ae2fe30b5296d46200095d565b81601514156200071d57507f19be59f2f0413ce78c0c3703a3a5451b1d7f39629fa33abd11548a76065b29676200095d565b81601614156200074f57507f1ff3f61797e538b70e619310d33f2a063e7eb59104e112e95738da1254dc34536200095d565b81601714156200078157507f10c16ae9959cf8358980d9dd9616e48228737310a10e2b6b731c1a548f036c486200095d565b8160181415620007b357507f0ba433a63174a90ac20992e75e3095496812b652685b5e1a2eae0b1bf4e8fcd16200095d565b8160191415620007e557507f019ddb9df2bc98d987d0dfeca9d2b643deafab8f7036562e627c3667266a044c6200095d565b81601a14156200081757507f2d3c88b23175c5a5565db928414c66d1912b11acf974b2e644caaac04739ce996200095d565b81601b14156200084957507f2eab55f6ae4e66e32c5189eed5c470840863445760f5ed7e7b69b2a62600f3546200095d565b81601c14156200087a57507e2df37a2642621802383cf952bf4dd1f32e05433beeb1fd41031fb7eace979d6200095d565b81601d1415620008ac57507f104aeb41435db66c3e62feccc1d6f5d98d0a0ed75d1374db457cf462e3a1f4276200095d565b81601e1415620008de57507f1f3c6fd858e9a7d4b0d1f38e256a09d81d5a5e3c963987e2d4b814cfab7c6ebb6200095d565b81601f14156200091057507f2c7a07d20dff79d01fecedc1134284a8d08436606c93693b67e333f671bf69cc6200095d565b6040805162461bcd60e51b815260206004820152601360248201527f496e646578206f7574206f6620626f756e647300000000000000000000000000604482015290519081900360640190fd5b919050565b60805160601c60a05160e01c60c05160601c60e0516101005160601c6101205160601c6101405160601c611f7f62000a09600039806105d6528061060f528061065f52508061063e5280610b5a5250806116a3528061172352806117805280611a435250806107d25280610c0552806117465280611a675250806109055280610b00525080610b36528061185f52806118cb52508061166d52806119575250611f7f6000f3fe6080604052600436106101665760003560e01c806390eeb02b116100d1578063e5285dcc1161008a578063ed33639f11610064578063ed33639f1461056b578063f178e47c14610580578063fc0c546a146105aa578063fc7e9c6f146105bf57610166565b8063e5285dcc14610502578063e82955881461052c578063ec7329591461055657610166565b806390eeb02b146103b15780639fa12d0b146103c6578063b214faa514610491578063ba70f757146104ae578063c2b40ae4146104c3578063cd87a3b4146104ed57610166565b80634ecf518b116101235780634ecf518b146102c65780635aa6e675146102f45780636d9833e314610309578063839df945146103335780638bca6d161461035d5780638ea3099e1461037257610166565b8063109d0af81461016b57806317cc915c1461019c5780631bd85bdb146101da57806321a0adb6146101f15780632b7ac3f31461028a578063414a37ba1461029f575b600080fd5b34801561017757600080fd5b506101806105d4565b604080516001600160a01b039092168252519081900360200190f35b3480156101a857600080fd5b506101c6600480360360208110156101bf57600080fd5b50356105f8565b604080519115158252519081900360200190f35b3480156101e657600080fd5b506101ef61060d565b005b6101ef600480360360e081101561020757600080fd5b810190602081018135600160201b81111561022157600080fd5b82018360208201111561023357600080fd5b803590602001918460018302840111600160201b8311171561025457600080fd5b91935091508035906020810135906001600160a01b03604082013581169160608101359091169060808101359060a00135610773565b34801561029657600080fd5b50610180610afe565b3480156102ab57600080fd5b506102b4610b22565b60408051918252519081900360200190f35b3480156102d257600080fd5b506102db610b34565b6040805163ffffffff9092168252519081900360200190f35b34801561030057600080fd5b50610180610b58565b34801561031557600080fd5b506101c66004803603602081101561032c57600080fd5b5035610b7c565b34801561033f57600080fd5b506101c66004803603602081101561035657600080fd5b5035610bee565b34801561036957600080fd5b506102b4610c03565b34801561037e57600080fd5b506102b46004803603606081101561039557600080fd5b506001600160a01b038135169060208101359060400135610c27565b3480156103bd57600080fd5b506102db610df5565b3480156103d257600080fd5b50610441600480360360208110156103e957600080fd5b810190602081018135600160201b81111561040357600080fd5b82018360208201111561041557600080fd5b803590602001918460208302840111600160201b8311171561043657600080fd5b509092509050610e01565b60408051602080825283518183015283519192839290830191858101910280838360005b8381101561047d578181015183820152602001610465565b505050509050019250505060405180910390f35b6101ef600480360360208110156104a757600080fd5b5035610ea0565b3480156104ba57600080fd5b506102b4610fc1565b3480156104cf57600080fd5b506102b4600480360360208110156104e657600080fd5b5035610fdc565b3480156104f957600080fd5b506102db610fee565b34801561050e57600080fd5b506101c66004803603602081101561052557600080fd5b5035610ff3565b34801561053857600080fd5b506102b46004803603602081101561054f57600080fd5b5035611008565b34801561056257600080fd5b506102b4611647565b34801561057757600080fd5b5061018061166b565b34801561058c57600080fd5b506102b4600480360360208110156105a357600080fd5b503561168f565b3480156105b657600080fd5b506101806116a1565b3480156105cb57600080fd5b506102db6116c5565b7f000000000000000000000000000000000000000000000000000000000000000081565b60046020526000908152604090205460ff1681565b7f00000000000000000000000000000000000000000000000000000000000000006001600160a01b031663a9059cbb7f00000000000000000000000000000000000000000000000000000000000000007f00000000000000000000000000000000000000000000000000000000000000006001600160a01b03166370a08231306040518263ffffffff1660e01b815260040180826001600160a01b0316815260200191505060206040518083038186803b1580156106ca57600080fd5b505afa1580156106de573d6000803e3d6000fd5b505050506040513d60208110156106f457600080fd5b5051604080516001600160e01b031960e086901b1681526001600160a01b03909316600484015260248301919091525160448083019260209291908290030181600087803b15801561074557600080fd5b505af1158015610759573d6000803e3d6000fd5b505050506040513d602081101561076f57600080fd5b5050565b600260035414156107cb576040805162461bcd60e51b815260206004820152601f60248201527f5265656e7472616e637947756172643a207265656e7472616e742063616c6c00604482015290519081900360640190fd5b60026003557f0000000000000000000000000000000000000000000000000000000000000000821115610845576040805162461bcd60e51b815260206004820152601a60248201527f4665652065786365656473207472616e736665722076616c7565000000000000604482015290519081900360640190fd5b60008581526004602052604090205460ff16156108a9576040805162461bcd60e51b815260206004820152601f60248201527f546865206e6f746520686173206265656e20616c7265616479207370656e7400604482015290519081900360640190fd5b6108b286610b7c565b610903576040805162461bcd60e51b815260206004820152601c60248201527f43616e6e6f742066696e6420796f7572206d65726b6c6520726f6f7400000000604482015290519081900360640190fd5b7f00000000000000000000000000000000000000000000000000000000000000006001600160a01b031663695ef6f989896040518060c001604052808b60001c81526020018a60001c8152602001896001600160a01b03168152602001886001600160a01b03168152602001878152602001868152506040518463ffffffff1660e01b8152600401808060200183600660200280838360005b838110156109b457818101518382015260200161099c565b505050509050018281038252858582818152602001925080828437600081840152601f19601f820116905080830192505050945050505050602060405180830381600087803b158015610a0657600080fd5b505af1158015610a1a573d6000803e3d6000fd5b505050506040513d6020811015610a3057600080fd5b5051610a7c576040805162461bcd60e51b815260206004820152601660248201527524b73b30b634b2103bb4ba34323930bb90383937b7b360511b604482015290519081900360640190fd5b6000858152600460205260409020805460ff19166001179055610aa1848484846116d8565b604080516001600160a01b038681168252602082018890528183018590529151918516917fe9e508bad6d4c3227e881ca19068f099da81b5164dd6d62b2eaf1e8bc6c349319181900360600190a250506001600355505050505050565b7f000000000000000000000000000000000000000000000000000000000000000081565b600080516020611e7f83398151915281565b7f000000000000000000000000000000000000000000000000000000000000000081565b7f000000000000000000000000000000000000000000000000000000000000000081565b600081610b8b57506000610be9565b60025463ffffffff16805b63ffffffff8116600090815260016020526040902054841415610bbe57600192505050610be9565b63ffffffff8116610bcd5750601e5b6000190163ffffffff8082169083161415610b96576000925050505b919050565b60056020526000908152604090205460ff1681565b7f000000000000000000000000000000000000000000000000000000000000000081565b6000600080516020611e7f8339815191528310610c8b576040805162461bcd60e51b815260206004820181905260248201527f5f6c6566742073686f756c6420626520696e7369646520746865206669656c64604482015290519081900360640190fd5b600080516020611e7f8339815191528210610cd75760405162461bcd60e51b8152600401808060200182810382526021815260200180611e5e6021913960400191505060405180910390fd5b6040805163f47d33b560e01b8152600481018590526000602482018190528251869391926001600160a01b0389169263f47d33b592604480840193829003018186803b158015610d2657600080fd5b505afa158015610d3a573d6000803e3d6000fd5b505050506040513d6040811015610d5057600080fd5b5080516020909101519092509050600080516020611e7f8339815191528483089150856001600160a01b031663f47d33b583836040518363ffffffff1660e01b81526004018083815260200182815260200192505050604080518083038186803b158015610dbd57600080fd5b505afa158015610dd1573d6000803e3d6000fd5b505050506040513d6040811015610de757600080fd5b5051925050505b9392505050565b60025463ffffffff1681565b60608167ffffffffffffffff81118015610e1a57600080fd5b50604051908082528060200260200182016040528015610e44578160200160208202803683370190505b50905060005b82811015610e9957610e6d848483818110610e6157fe5b90506020020135610ff3565b15610e91576001828281518110610e8057fe5b911515602092830291909101909101525b600101610e4a565b5092915050565b60026003541415610ef8576040805162461bcd60e51b815260206004820152601f60248201527f5265656e7472616e637947756172643a207265656e7472616e742063616c6c00604482015290519081900360640190fd5b600260035560008181526005602052604090205460ff1615610f4b5760405162461bcd60e51b8152600401808060200182810382526021815260200180611e9f6021913960400191505060405180910390fd5b6000610f5682611846565b6000838152600560205260409020805460ff191660011790559050610f796119f9565b6040805163ffffffff83168152426020820152815184927fa945e51eec50ab98c161376f0db4cf2aeba3ec92755fe2fcd388bdbbb80ff196928290030190a250506001600355565b60025463ffffffff1660009081526001602052604090205490565b60016020526000908152604090205481565b601e81565b60009081526004602052604090205460ff1690565b60008161103657507f2fe54c60d3acabf3343a35b6eba15db4821b340f76e741e2249685ed4899af6c610be9565b816001141561106657507f256a6135777eee2fd26f54b8b7037a25439d5235caee224154186d2b8a52e31d610be9565b816002141561109657507f1151949895e82ab19924de92c40a3d6f7bcb60d92b00504b8199613683f0c200610be9565b81600314156110c657507f20121ee811489ff8d61f09fb89e313f14959a0f28bb428a20dba6b0b068b3bdb610be9565b81600414156110f657507f0a89ca6ffa14cc462cfedb842c30ed221a50a3d6bf022a6a57dc82ab24c157c9610be9565b816005141561112657507f24ca05c2b5cd42e890d6be94c68d0689f4f21c9cec9c0f13fe41d566dfb54959610be9565b816006141561115657507f1ccb97c932565a92c60156bdba2d08f3bf1377464e025cee765679e604a7315c610be9565b816007141561118657507f19156fbd7d1a8bf5cba8909367de1b624534ebab4f0f79e003bccdd1b182bdb4610be9565b81600814156111b657507f261af8c1f0912e465744641409f622d466c3920ac6e5ff37e36604cb11dfff80610be9565b81600914156111e557507e58459724ff6ca5a1652fcbc3e82b93895cf08e975b19beab3f54c217d1c007610be9565b81600a141561121557507f1f04ef20dee48d39984d8eabe768a70eafa6310ad20849d4573c3c40c2ad1e30610be9565b81600b141561124557507f1bea3dec5dab51567ce7e200a30f7ba6d4276aeaa53e2686f962a46c66d511e5610be9565b81600c141561127557507f0ee0f941e2da4b9e31c3ca97a40d8fa9ce68d97c084177071b3cb46cd3372f0f610be9565b81600d14156112a557507f1ca9503e8935884501bbaf20be14eb4c46b89772c97b96e3b2ebf3a36a948bbd610be9565b81600e14156112d557507f133a80e30697cd55d8f7d4b0965b7be24057ba5dc3da898ee2187232446cb108610be9565b81600f141561130557507f13e6d8fc88839ed76e182c2a779af5b2c0da9dd18c90427a644f7e148a6253b6610be9565b816010141561133557507f1eb16b057a477f4bc8f572ea6bee39561098f78f15bfb3699dcbb7bd8db61854610be9565b816011141561136557507f0da2cb16a1ceaabf1c16b838f7a9e3f2a3a3088d9e0a6debaa748114620696ea610be9565b816012141561139557507f24a3b3d822420b14b5d8cb6c28a574f01e98ea9e940551d2ebd75cee12649f9d610be9565b81601314156113c557507f198622acbd783d1b0d9064105b1fc8e4d8889de95c4c519b3f635809fe6afc05610be9565b81601414156113f557507f29d7ed391256ccc3ea596c86e933b89ff339d25ea8ddced975ae2fe30b5296d4610be9565b816015141561142557507f19be59f2f0413ce78c0c3703a3a5451b1d7f39629fa33abd11548a76065b2967610be9565b816016141561145557507f1ff3f61797e538b70e619310d33f2a063e7eb59104e112e95738da1254dc3453610be9565b816017141561148557507f10c16ae9959cf8358980d9dd9616e48228737310a10e2b6b731c1a548f036c48610be9565b81601814156114b557507f0ba433a63174a90ac20992e75e3095496812b652685b5e1a2eae0b1bf4e8fcd1610be9565b81601914156114e557507f019ddb9df2bc98d987d0dfeca9d2b643deafab8f7036562e627c3667266a044c610be9565b81601a141561151557507f2d3c88b23175c5a5565db928414c66d1912b11acf974b2e644caaac04739ce99610be9565b81601b141561154557507f2eab55f6ae4e66e32c5189eed5c470840863445760f5ed7e7b69b2a62600f354610be9565b81601c141561157457507e2df37a2642621802383cf952bf4dd1f32e05433beeb1fd41031fb7eace979d610be9565b81601d14156115a457507f104aeb41435db66c3e62feccc1d6f5d98d0a0ed75d1374db457cf462e3a1f427610be9565b81601e14156115d457507f1f3c6fd858e9a7d4b0d1f38e256a09d81d5a5e3c963987e2d4b814cfab7c6ebb610be9565b81601f141561160457507f2c7a07d20dff79d01fecedc1134284a8d08436606c93693b67e333f671bf69cc610be9565b6040805162461bcd60e51b8152602060048201526013602482015272496e646578206f7574206f6620626f756e647360681b604482015290519081900360640190fd5b7f2fe54c60d3acabf3343a35b6eba15db4821b340f76e741e2249685ed4899af6c81565b7f000000000000000000000000000000000000000000000000000000000000000081565b60006020819052908152604090205481565b7f000000000000000000000000000000000000000000000000000000000000000081565b600254600160201b900463ffffffff1681565b8034146117165760405162461bcd60e51b8152600401808060200182810382526030815260200180611e086030913960400191505060405180910390fd5b61176d6001600160a01b037f000000000000000000000000000000000000000000000000000000000000000016857f0000000000000000000000000000000000000000000000000000000000000000859003611a8d565b81156117a7576117a76001600160a01b037f0000000000000000000000000000000000000000000000000000000000000000168484611a8d565b8015611840576040516000906001600160a01b0386169083908381818185875af1925050503d80600081146117f8576040519150601f19603f3d011682016040523d82523d6000602084013e6117fd565b606091505b505090508061183e576040516001600160a01b0385169083156108fc029084906000818181858888f1935050505015801561183c573d6000803e3d6000fd5b505b505b50505050565b6002805460009163ffffffff600160201b9092048216917f0000000000000000000000000000000000000000000000000000000000000000811690910a168114156118c25760405162461bcd60e51b8152600401808060200182810382526030815260200180611f1a6030913960400191505060405180910390fd5b8083600080805b7f000000000000000000000000000000000000000000000000000000000000000063ffffffff168163ffffffff1610156119935760018516611936578392506119178163ffffffff16611008565b63ffffffff821660009081526020819052604090208590559150611952565b63ffffffff811660009081526020819052604090205492508391505b61197d7f00000000000000000000000000000000000000000000000000000000000000008484610c27565b9350600263ffffffff86160494506001016118c9565b505060028054601e63ffffffff8083166001908101821692909206811663ffffffff199093168317845560009283526020829052604090922094909455815493860116600160201b0267ffffffff00000000199093169290921790915550909392505050565b3415611a365760405162461bcd60e51b8152600401808060200182810382526030815260200180611ec06030913960400191505060405180910390fd5b611a8b6001600160a01b037f00000000000000000000000000000000000000000000000000000000000000001633307f0000000000000000000000000000000000000000000000000000000000000000611ae4565b565b604080516001600160a01b038416602482015260448082018490528251808303909101815260649091019091526020810180516001600160e01b031663a9059cbb60e01b179052611adf908490611b3a565b505050565b604080516001600160a01b0380861660248301528416604482015260648082018490528251808303909101815260849091019091526020810180516001600160e01b03166323b872dd60e01b1790526118409085905b6000611b8f826040518060400160405280602081526020017f5361666545524332303a206c6f772d6c6576656c2063616c6c206661696c6564815250856001600160a01b0316611beb9092919063ffffffff16565b805190915015611adf57808060200190516020811015611bae57600080fd5b5051611adf5760405162461bcd60e51b815260040180806020018281038252602a815260200180611ef0602a913960400191505060405180910390fd5b6060611bfa8484600085611c02565b949350505050565b606082471015611c435760405162461bcd60e51b8152600401808060200182810382526026815260200180611e386026913960400191505060405180910390fd5b611c4c85611d5d565b611c9d576040805162461bcd60e51b815260206004820152601d60248201527f416464726573733a2063616c6c20746f206e6f6e2d636f6e7472616374000000604482015290519081900360640190fd5b600080866001600160a01b031685876040518082805190602001908083835b60208310611cdb5780518252601f199092019160209182019101611cbc565b6001836020036101000a03801982511681845116808217855250505050505090500191505060006040518083038185875af1925050503d8060008114611d3d576040519150601f19603f3d011682016040523d82523d6000602084013e611d42565b606091505b5091509150611d52828286611d63565b979650505050505050565b3b151590565b60608315611d72575081610dee565b825115611d825782518084602001fd5b8160405162461bcd60e51b81526004018080602001828103825283818151815260200191508051906020019080838360005b83811015611dcc578181015183820152602001611db4565b50505050905090810190601f168015611df95780820380516001836020036101000a031916815260200191505b509250505060405180910390fdfe496e636f727265637420726566756e6420616d6f756e742072656365697665642062792074686520636f6e7472616374416464726573733a20696e73756666696369656e742062616c616e636520666f722063616c6c5f72696768742073686f756c6420626520696e7369646520746865206669656c6430644e72e131a029b85045b68181585d2833e84879b9709143e1f593f000000154686520636f6d6d69746d656e7420686173206265656e207375626d69747465644554482076616c756520697320737570706f73656420746f206265203020666f7220455243323020696e7374616e63655361666545524332303a204552433230206f7065726174696f6e20646964206e6f7420737563636565644d65726b6c6520747265652069732066756c6c2e204e6f206d6f7265206c65617665732063616e206265206164646564a2646970667358221220e42cf5b1e56a2650ddd83aac07ef8cef258fe40a198a57e14381f10cd7fa21e964736f6c6343000706003364656e6f6d696e6174696f6e2073686f756c642062652067726561746572207468616e20305f6c6576656c732073686f756c642062652067726561746572207468616e207a65726f",
  "immutableReferences": {
    "11": [
      {
        "length": 32,
        "start": 5795
      },
      {
        "length": 32,
        "start": 5923
      },
      {
        "length": 32,
        "start": 6016
      },
      {
        "length": 32,
        "start": 6723
      }
    ],
    "250": [
      {
        "length": 32,
        "start": 5741
      },
      {
        "length": 32,
        "start": 6487
      }
    ],
    "252": [
      {
        "length": 32,
        "start": 2870
      },
      {
        "length": 32,
        "start": 6239
      },
      {
        "length": 32,
        "start": 6347
      }
    ],
    "1064": [
      {
        "length": 32,
        "start": 2309
      },
      {
        "length": 32,
        "start": 2816
      }
    ],
    "1066": [
      {
        "length": 32,
        "start": 2002
      },
      {
        "length": 32,
        "start": 3077
      },
      {
        "length": 32,
        "start": 5958
      },
      {
        "length": 32,
        "start": 6759
      }
    ],
    "2115": [
      {
        "length": 32,
        "start": 1598
      },
      {
        "length": 32,
        "start": 2906
      }
    ],
    "2117": [
      {
        "length": 32,
        "start": 1494
      },
      {
        "length": 32,
        "start": 1551
      },
      {
        "length": 32,
        "start": 1631
      }
    ]
  },
  "source": "// https://tornado.cash\n/*\n * d888888P                                           dP              a88888b.                   dP\n *    88                                              88             d8'   `88                   88\n *    88    .d8888b. 88d888b. 88d888b. .d8888b. .d888b88 .d8888b.    88        .d8888b. .d8888b. 88d888b.\n *    88    88'  `88 88'  `88 88'  `88 88'  `88 88'  `88 88'  `88    88        88'  `88 Y8ooooo. 88'  `88\n *    88    88.  .88 88       88    88 88.  .88 88.  .88 88.  .88 dP Y8.   .88 88.  .88       88 88    88\n *    dP    `88888P' dP       dP    dP `88888P8 `88888P8 `88888P' 88  Y88888P' `88888P8 `88888P' dP    dP\n * ooooooooooooooooooooooooooooooooooooooooooooooooooooooooooooooooooooooooooooooooooooooooooooooooooooooo\n */\n\n// SPDX-License-Identifier: MIT\npragma solidity ^0.7.0;\n\nimport \"./ERC20Tornado.sol\";\nimport \"@openzeppelin/contracts/token/ERC20/IERC20.sol\";\n\ncontract cTornado is ERC20Tornado {\n  address public immutable governance = 0x5efda50f22d34F262c29268506C5Fa42cB56A1Ce;\n  IERC20 public immutable comp;\n\n  constructor(\n    IERC20 _comp,\n    IVerifier _verifier,\n    IHasher _hasher,\n    uint256 _denomination,\n    uint32 _merkleTreeHeight,\n    IERC20 _token\n  ) ERC20Tornado(_verifier, _hasher, _denomination, _merkleTreeHeight, _token) {\n    require(address(_comp) != address(0), \"Invalid COMP token address\");\n    comp = _comp;\n  }\n\n  /// @dev Moves earned yield of the COMP token to the tornado governance contract\n  /// To make it work you might need to call `comptroller.claimComp(cPoolAddress)` first\n  function claimComp() external {\n    comp.transfer(governance, comp.balanceOf(address(this)));\n  }\n}\n",
  "sourcePath": "/Users/sohamzemse/Workspace/Eth-Projects/ANON/anon-monorepo/packages/anon-core/contracts/cTornado.sol",
  "compiler": {
    "name": "solc",
    "version": "0.7.6+commit.7338295f.Emscripten.clang"
  },
  "schemaVersion": "3.3.4",
  "updatedAt": "2021-04-14T22:58:26.189Z",
  "devdoc": {
    "kind": "dev",
    "methods": {
      "claimComp()": {
        "details": "Moves earned yield of the COMP token to the tornado governance contract To make it work you might need to call `comptroller.claimComp(cPoolAddress)` first"
      },
      "deposit(bytes32)": {
        "details": "Deposit funds into the contract. The caller must send (for ETH) or approve (for ERC20) value equal to or `denomination` of this instance.",
        "params": {
          "_commitment": "the note commitment, which is PedersenHash(nullifier + secret)"
        }
      },
      "getLastRoot()": {
        "details": "Returns the last root"
      },
      "hashLeftRight(address,bytes32,bytes32)": {
        "details": "Hash 2 tree leaves, returns MiMC(_left, _right)"
      },
      "isKnownRoot(bytes32)": {
        "details": "Whether the root is present in the root history"
      },
      "isSpent(bytes32)": {
        "details": "whether a note is already spent "
      },
      "isSpentArray(bytes32[])": {
        "details": "whether an array of notes is already spent "
      },
      "withdraw(bytes,bytes32,bytes32,address,address,uint256,uint256)": {
        "details": "Withdraw a deposit from the contract. `proof` is a zkSNARK proof data, and input is an array of circuit public inputs `input` array consists of: - merkle root of all deposits in the contract - hash of unique deposit nullifier to prevent double spends - the recipient of funds - optional fee that goes to the transaction sender (usually a relay)"
      },
      "zeros(uint256)": {
        "details": "provides Zero (Empty) elements for a MiMC MerkleTree. Up to 32 levels"
      }
    },
    "version": 1
  },
  "userdoc": {
    "kind": "user",
    "methods": {},
    "version": 1
  }
}